:1000000079C3000093C3000091C300008FC30000B8
:100010008DC300008BC3000089C3000087C30000AC
:1000200085C3000083C300000C943F0F0C94FB0DAC
:100030000C9458117BC3000079C3000077C3000003
:1000400075C3000073C3000071C300006FC30000DC
:100050006DC300000C94261169C3000067C3000043
:1000600065C3000063C3000061C300005FC30000FC
:100070005DC300005BC3000059C3000057C300000C
:1000800055C3000053C3000051C300004FC300001C
:100090004DC300004BC3000049C3000047C300002C
:1000A00045C3000043C3000041C30000F4086809D1
:1000B000FC08C608CA080009CD0803090E09D808BB
:1000C0005E09DC081209E00816094009E4081A096B
:1000D0004A09EA0820092A09D1080709D4080A09A7
:1000E000EF082509360956095809C208F8087109A8
:1000F000B809CB09D009D509DA09DF09E409E9090A
:10010000EE09F309F809AA0AAA0ADD0ADD0A5A0B60
:100110006E0C6E0C6E0C760BEA0BFB0BFB0B4F1987
:10012000521958195119541957195619001C271CDE
:10013000E41D271CE41D731C961CE41D981DA81DBE
:100140001E0F0500047F3F1F643214643214783C94
:100150001E1E140A052223252628292A2C2D2F307D
:1001600032333536383A3B3D3E4042434547494AB3
:100170004C4E5051535557595A5C5E6062646668E4
:10018000696B6D6F71737577797B7D7F81838587EF
:10019000898A8C8E90929496989A9C9E9FA1A3A5F2
:1001A000A7A8AAACAEAFB1B3B4B6B8B9BBBCBEBF1A
:1001B000C1C2C3C5C6C7C9CACBCCCDCED0D1D2D29D
:1001C000D3D4D5D6D7D7D8D9D9DADADBDBDBDCDCA8
:1001D000DCDCDCDDDDDDDDDCDCDCDCDCDBDBDBDA60
:1001E000DAD9D9D8D7D7D6D5D4D3D2D2D1D0CECDCB
:1001F000CCCBCAC9C7C6C5C3C2C1BFBEBCBBB9B8D8
:10020000B6B4B3B1AFAEACAAA8A7A5A3A19F9E9C5C
:100210009A98969492908E8C8A89878583817F7D27
:100220007B79777573716F6D6B6968666462605E08
:100230005C5A5957555351504E4C4A4947454342D1
:10024000403E3D3B3A3836353332302F2D2C2A296B
:10025000282625232229002B00E000E100E30000EE
:10026000001E00140004001D0035002A001F001AA3
:100270000016001B003400E2002000080007000602
:1002800000E6002C00210015000900190022524C44
:1002900000220017000A00050000004A005000225A
:1002A000520000215200004D004F00625200002118
:1002B000520000010023001C000B00110000004947
:1002C00000240018000D0010002F024C0025000C27
:1002D000000E00360030022800260012000F003702
:1002E000002F002900270013003300380030002AB7
:1002F000002A00310034002D0021520000290001A5
:100300000001000100010000003A001E022002224C
:10031000022E00437E3B001F022102230201004205
:100320007E3C002F0226022F00010028783D00307D
:1003300002270230000100417E3E003102350035C7
:1003400002000021780100010000000100000027E8
:10035000780100010000000100000020783F0052F9
:1003600000510024020000407E4000240021001EB5
:10037000000100007E4100250022001F00370023FD
:10038000784200260023002000270024784300251F
:10039000022E0231002E0001004400450001000140
:1003A0000001000000010001000100010001000047
:1003B0000001000100040001000100010001001A19
:1003C000001600010001000100010001000700010A
:1003D0000001002C000100010001000100010001EA
:1003E0000001000100010001000000010001000106
:1003F00000000001000000010001000100000001F8
:100400000000000100010001005000010000000197
:1004100000010001005100AA00AE0001000100012E
:10042000005200A900AC00BB00010001004F00A871
:1004300000AB00BC0001000100010001000100014F
:100440000001000100010001000100000005010998
:1004500080A101850319012AB700150126B700956F
:100460000175108100C0050C0901A1018504190165
:100470002AA002150126A002950175108100C00571
:10048000010906A1018506050719E029E7150025E0
:10049000019508750181020507190029EF1500254E
:1004A0000195F07501810205081901290595057569
:1004B000019102950175039101C00660FF0961A1D8
:1004C000010962150026FF00952075088102096365
:1004D000150026FF00952075089102C00501090648
:1004E000A101050719E029E7150025019508750107
:1004F00081029501750881010507190029FF150082
:1005000026FF0095067508810005081901290515C3
:10051000002501950575019102950175039101C0B2
:1005200009025B00030100A0FA09040000010301B5
:10053000010009211101000122440007058103087F
:10054000000109040100020300000009211101005B
:100550000122220007058203200001070503032072
:10056000000109040200010300000009211101003B
:1005700001226D0007058403200001120100020022
:10058000000008973275490001010203011A036156
:100590000037004C00300044002F0044007A007205
:1005A000006E005900370000001603450072006716
:1005B000006F0064006F007800200045005A0000C2
:1005C0000028035A005300410020005400650063D6
:1005D0000068006E006F006C006F006700790020FB
:1005E000004C00610062007300000004030904FF76
:1005F000AA7F554000010101010101010101020230
:1006000002020202020202030303030303030304C0
:10061000040404040404050505050506060606068B
:10062000070707070708080808090909090A0A0A45
:100630000B0B0B0C0C0C0D0D0D0E0E0E0F0F0F10E7
:100640001011111112121313141415151616171771
:10065000181819191A1A1B1B1C1D1D1E1E1F2020DD
:10066000212222232424252626272829292A2B2C27
:100670002D2D2E2F30313232333435363738393A4A
:100680003B3C3D3E3F404142434445464748494A42
:100690004C4D4E4F50515354555658595A5B5D5E10
:1006A0005F616264656668696B6C6D6F70727375AB
:1006B00077787A7B7D7E8082838587888A8C8E8F0F
:1006C00091939596989A9C9EA0A2A3A5A7A9ABAD3D
:1006D000AFB1B3B5B7BABCBEC0C2C4C6C9CBCDCF2B
:1006E000D1D4D6D8DBDDDFE2E4E7E9EBEEF0F3F5D9
:1006F000F8FAFDFF11241FBECFEFDAE0DEBFCDBF59
:1007000011E0A0E0B1E0EAE9FCE402C005900D923E
:10071000A63CB107D9F723E0A6ECB1E001C01D92D9
:10072000A73BB207E1F703D00C944B2669CCA6E6B1
:10073000B0E0EDE9F3E00C94942485B7806885BFC0
:1007400085B7806885BF84B7877F84BF0FB6F8946C
:10075000A89580916000886180936000109260008D
:100760000FBE90E080E80FB6F894809361009093FC
:1007700061000FBE81E0809316018CE492E19093BA
:10078000C7018093C6010E943F0E0E94E50E809132
:10079000E20084608093E200789480917A03882359
:1007A000A1F01091E9001F709091EC00892F8170E9
:1007B00090FD80E8182B1092E9008091E80083FDFD
:1007C0000E94191B1F701093E90082E084BD93E022
:1007D00095BD9AEF97BD80936E000E946B1A90E0D2
:1007E00090931101809310010E94E3190E94461A10
:1007F000E8ECF1E0ADEDB1E011921D9221E0E63DB3
:10080000F207D1F780E090E00E942C25833E9E4FB6
:10081000C9F163EE7EEF80E090E00E944B2560E03E
:1008200082E090E00E94312581E08093FB0161E04D
:1008300083E090E00E94312560E074E184E090E084
:100840000E944B250E94721E1092D7011092D8016F
:100850001092D9011092DA0184E08093D70140917F
:10086000D7015091D8016091D9017091DA018FE0E0
:1008700090E00E94432540E050E0BA0183E190E01F
:100880000E94432582E090E00E941F258093EB01A7
:1008900084E090E00E942C2590937C0280937B0260
:1008A0000E941F17FFEF23EF81E0F15020408040AE
:1008B000E1F700C000000E941F178091DD0180FF5A
:1008C00008C06FEF7FEF80E090E00E944B250E9410
:1008D000F41083E090E00E941F250E941B2180916C
:1008E000FC010E943B198091D601811131C084E83E
:1008F00093E00E94D71A809184038C7F31F40E9488
:10090000721E84E893E00E94D71A80918403282FF6
:100910002695269530E02115310519F48370846001
:1009200005C02B32310524F08370886A80938403DC
:10093000109293030E94A30C8091840380FF05C052
:1009400060E0869586950E940E2081E08093D60116
:1009500089EA8093800089E08093810024982C9814
:100960003F98479A54985C9A55985D9A6E98769AF3
:10097000569A8FE090E00E9427256093D7017093EC
:10098000D8018093D9019093DA0167701FEF169F09
:10099000B0011124759567957595679577277093C4
:1009A00089006093880070938B0060938A00709335
:1009B0008D0060938C005E980E942E190E942A1967
:1009C0000E9426198FEF90E0909389008093880011
:1009D00090938B0080938A0090938D0080938C007D
:1009E0000E9438199FEFE0E7F2E09150E040F040BC
:1009F000E1F700C000000E9435192FEF80E792E078
:100A0000215080409040E1F700C000000E94321960
:100A1000EFEFF0E722E0E150F0402040E1F700C0C6
:100A200000000E942E198FEF90E7E2E08150904085
:100A3000E040E1F700C000000E942A19FFEF20E724
:100A400082E0F15020408040E1F700C000000E94A9
:100A500026198091D7018770189FC00111249595A0
:100A6000879595958795992790938900809388001D
:100A700090938B0080938A0090938D0080938C00DC
:100A80005E980E942E190E942A190E9426198091B0
:100A9000FC010E943B1984E091E0909378028093DE
:100AA000770238E1C32ED12CAA24A3944BEEE42E76
:100AB00041E0F42EBB24B39480917A03853009F091
:100AC00074C010E400E1B2E19B2E80917A0385307E
:100AD00009F055C080917A03843009F434C0109233
:100AE00093038091DC0181110DC0B092DC018091F3
:100AF0008403982F91709093DB018E7F8093840301
:100B00000E94FC1D10927D020FB6F894A895C09229
:100B100060000FBE1093600083B7817F846083BF45
:100B200083B7816083BF7894889583B78E7F83BFB6
:100B30000FB6F894A895809160008861809360005A
:100B4000109260000FBE0E946B1A90E0909311010A
:100B5000809310010E94E3190E94461AEDEDF1E026
:100B60001192EE16FF06E1F70E941F17EDEDF1E07E
:100B70008191811134C2EE16FF06D1F7A6CF0E94F3
:100B800047210E943D121092DC018091DB018823F5
:100B900051F08091840381608093840360E08695A6
:100BA00086950E940E200E94F81F0E941F170CEECF
:100BB00011E02AEF31E0ADEDB1E0F80191918D91B6
:100BC00089272E173F0719F08823C1F305C081112B
:100BD00003C00E94A31752C0ADED8A2EA1E09A2E49
:100BE000712CF40131904F01F80140804324A9F1A8
:100BF000612C55245394842D852141F1A2966FAE2A
:100C0000A297A3967FAEA3970E944C11A5969FAF83
:100C10008EAFA597A696AFAEA69791E0832D8521BE
:100C200009F490E0A7969FAFA797A2964FADA29721
:100C3000A3965FADA397A4966FADA497A5967FAD3D
:100C4000A597A6968FADA6970E947C186394550C25
:100C5000F6E06F12D0CFF801308273940F5F1F4F10
:100C6000FEE07F12BECF8FB7F89440917E02509184
:100C70007F0260918002709181028FBF8091930307
:100C8000882309F4A6C080919203E0918403E6953D
:100C9000E695E81BE0938E03823059F4F0E0EF5ABA
:100CA000FE4FE4910E2F10E0FBE48F2EFEE19F2E0D
:100CB0006BC0863059F4F0E0E25BFE4FE4910E2FFA
:100CC00010E0ECE38E2EEEE19E2E5EC0893061F4E2
:100CD000E695F0E0E55BFE4FE4910E2F10E072ED3B
:100CE000872E7FE1972E50C08F3061F4E695F0E0BB
:100CF000E85BFE4FE4910E2F10E068E7862E6FE16F
:100D0000962E42C0853159F4F0E0EB5BFE4FE49142
:100D10000E2F10E050E3852E5FE1952E35C088310F
:100D2000F9F0833249F4E3E4F1E0059114914EEDDA
:100D3000842E4DE0942E28C08432C9F08532F1F41F
:100D40008E2F63E00E94BC25E92FF0E0E05CFE4FAF
:100D5000E4910E2F10E035EA832E3CE0932E14C070
:100D600008E210E026E6822E2DE0922E0DC004EF60
:100D700011E097E3892E9DE0992E06C000ED17E063
:100D80008BEF882E8DE1982E80918F03882361F060
:100D900010928F030E944C1190938D0380938C03CB
:100DA00010929103109290030E944C11E0918C03D9
:100DB000F0918D038E1B9F0B8F3F9F4750F40E0FBA
:100DC0001F1F10938D0300938C038CE893E0F401B4
:100DD00009950E943D129091FA01891769F080935C
:100DE000FA018FB7F89440917E0250917F02609192
:100DF0008002709181028FBF80917A03843009F064
:100E00005BCE83E08093E9008091E80082FF54CEBE
:100E10008091E80085FF20C051D781111BC000E2FE
:100E200010E04E01F1E48F0E911C08C08091F1009A
:100E3000F40181934F010150110961F08091E800A4
:100E400085FDF4CF8091E8008B778093E80036D75A
:100E50008823A1F391E001C090E08091E8008B77B6
:100E60008093E800992309F427CE22968FAD22972C
:100E7000863009F495C028F5823009F41DCED8F4E7
:100E80008823A1F1813009F0A6C08093FD0184E0A0
:100E900089A31EEF1AA3CE0181960E94B01A9091E9
:100EA000FC018091FB01892B0E943F1895E09983FA
:100EB0008A831B838BC0843031F1853009F470C084
:100EC0008AC0893009F46CC030F48730C9F18830A9
:100ED00009F466C080C08A3009F464C08E3F09F00E
:100EE0007AC0898394E09A838B8370C019828DE0E5
:100EF000E4E2F1E0DE01129601900D928A95E1F7AD
:100F00008EEF8E8763C08091FD01882309F4D4CDD4
:100F100023968FAD2397811106C024968FAD249719
:100F20000E940621C9CD81E090E024960FAC249761
:100F300002C0880F991F0A94E2F70E940121BCCDDC
:100F4000B092FF0123968FAD23978230E1F030F508
:100F5000882319F0813061F021C024968FAD249749
:100F6000882319F00E943819A7CD0E942E19A4CD0C
:100F700024968FAD2497882319F00E9435199CCDB3
:100F80000E942A1999CD24968FAD2497882319F0B1
:100F90000E94321991CD0E9426198ECD85E01CC089
:100FA00084E01AC023968FAD239711E0811101C010
:100FB00010E01093FF01811106C00E942E190E94BB
:100FC0002A190E9426198BE089831A83CE01019683
:100FD0000E94B01A71CD8FEF0E9487196DCD80915C
:100FE0007903882309F471CD09BD99BC09B400FEC9
:100FF000FDCF8091D8008F7D8093D8008091E00054
:1010000082608093E0008091E00081FDFCCF0E942F
:1010100047215BCDA0E0B0E0E0E1F8E00C949C2437
:10102000FC012481222309F485C48C0161E00E9423
:101030005318EC01F8018581C130FEE7DF07D1F5D7
:10104000882309F47EC09091D70181E0890F8770D1
:10105000987F853020F4892B8093D70102C090932C
:10106000D7018091D70187702FEF829FC001112493
:101070009595879595958795992790938900809365
:10108000880090938B0080938A0090938D008093CA
:101090008C004091D7015091D8016091D901709195
:1010A000DA018FE090E00E9443258091FC010E94CC
:1010B0003B1947C0C1343EE7D307B9F028F4C03428
:1010C000EEE7DE0751F03DC0C234FEE7DF07D9F09E
:1010D000C3342EE7D20739F134C0882309F42AC17A
:1010E00061E081E00E940E2025C1882309F422C11D
:1010F0000E94412061E081E00E940E2021E040E852
:101100006FEF86E50DC0882309F414C10E944120C9
:1011100061E081E00E940E2021E04FEF6FEF8CEA4A
:101120000E948A1E07C1882309F404C10E9441203D
:1011300061E081E00E940E2021E04FEF6FEF8BE134
:10114000EFCFF8019581992309F457C19E013057DB
:101150002332310508F0DBC084E090E00E942C25AA
:1011600090937C0280937B02FE01E150F047E232D3
:10117000F10520F4EA5AFF4F0C94E82580917B0298
:101180008160ACC080917C028860B4C080917B0299
:101190008260A4C080917B0220C080917B02886025
:1011A0009DC080917C021EC080917C028260A2C0A2
:1011B00080917B02806192C080917B0280628EC0B0
:1011C00080917B0280648AC00E94472180917B02CB
:1011D000806884C080917B02886084607FC0809139
:1011E0007C028260816086C080917B028E7F76C0A7
:1011F00080917C02877F7EC080917B028D7F6EC054
:1012000080917B0220C080917B02877F67C08091A4
:101210007C021EC080917C028D7F6CC080917B021D
:101220008F7E5CC080917B028F7D58C080917B0255
:101230008F7B54C00E94472180917B028F774EC0E4
:1012400080917B02877F8B7F49C080917C028D7F5C
:101250008E7F50C080917B0282FB222720F991E093
:10126000922790FB82F990FB83F938C080917C0231
:10127000982F909591708E7F892B90FB81F93AC0C1
:1012800080917B0286FB222720F991E0922790FB38
:1012900086F924C00E94472180917B0287FB222788
:1012A00020F991E0922790FB87F918C061E001C016
:1012B00060E08EE090E00E9431251EC080917B02AC
:1012C00084FB222720F991E0922790FB84F906C045
:1012D00080917B02982F909590FB80F980937B0200
:1012E0000BC080917C0283FB222720F991E092279A
:1012F00090FB83F980937C0260917B0270917C0269
:1013000084E090E00E944B250E94472113C0809109
:10131000EF02C631FCE7DF07F9F48A7A91E009F4BD
:1013200090E0909300028111FAC289E20E94B81104
:101330000E94B8148091C402877009F4FBC2F801BE
:101340008581882309F4F6C280917C0282FFF2C273
:1013500082E00E940D15EEC28272FE01E052F84753
:10136000EB30F10508F04EC0E858FF4F0C94E8252B
:101370008091840380FF0CC08E7F8093840384E877
:1013800093E00E94B61A109293030E94FC1DD2CFE4
:101390000E944120CFCF882329F00E944A20CACF43
:1013A0008823D9F30E945320C5CF882329F00E94B7
:1013B000201FC0CF8823D9F30E94281FBBCF8823CA
:1013C00029F00E940A1FB6CF8823D9F30E94151F67
:1013D000B1CF882329F00E94F41EACCF8823D9F323
:1013E0000E94FF1EA7CF882329F00E945E1EA2CF75
:1013F0008823D9F30E94681E9DCFC6312CE7D207FF
:1014000009F48FC29E01205E324520323105A8F4D6
:10141000911115C0CF7181E090E0FC0102C0EE0F88
:10142000FF1FCA95E2F7EF016E2F83E090E00E9464
:1014300031258C2F0E941B217DCF9923A9F1C33028
:10144000FCE7DF07D9F040F4C1153CE7D30789F08A
:10145000C130DC47C9F028C0CB359CE7D90709F17A
:10146000CC35ECE7DE07A9F0CA35DC47E9F481E0CA
:1014700019C081E00E941A19B7D65CCF6FEF7FEFD9
:1014800080E090E00E944B2580E00E941A19A1D6CE
:1014900051CF80917C0282FB882780F991E08927D7
:1014A00001C080E00E942415F8018581C081D181AE
:1014B000882349F0CE010E945D20F82E682FCE01CE
:1014C0000E94CC2004C0CE010E949820F82EBE01BC
:1014D0008F2D0E947F130E949C13F82EC92FD82EA7
:1014E000F801D581E680E2949FE0E9228091C40270
:1014F000877001F1DD23F1F08C2F807F803469F05B
:1015000080E28F0D8830B0F08C2F807E803229F4FD
:10151000F1E0FF1578F4EE2069F080917C0282FF03
:1015200009C082E00E940D158091C4028770CC240E
:10153000C3948111C12CBC2EB2948FE0B8228B2DA4
:1015400090E08C30910508F0C9C1FC01ED57FF4FC8
:101550000C94E8258C2F807FCF70882311F0C295E2
:10156000C07FDD23B9F0CC2309F4A6C180E28F0D42
:10157000883010F0D11006C09091EF02C92BC093B3
:10158000EF0205C09091C602C92BC093C6020E940B
:10159000B81492C18F2D0E947921CC2309F49EC1E9
:1015A00080E28F0D883088F1DD2079F1C09590912F
:1015B000C602C923C093C6022BC08C2F807FCF7078
:1015C000803211F0C295C07F8F2DDD2029F021E0FF
:1015D000D21609F44CC055C080917C0282FD1BC01C
:1015E000DD2369F0CC2339F09091EF02C92BC09331
:1015F000EF020E94B81480E00E94A1216FC180E038
:101600000E947921CC2309F469C18C2F0E94B11466
:101610000E94B81463C1DD2381F0EE20B1F131E006
:10162000E3125CC19091C5028C2F8923C81709F47D
:1016300055C1C92BC093C50251C1E1104FC18C2FB8
:101640000E9468218091C5029C2F982329F09C2F2D
:10165000909589238093C502209101028C2F8223CB
:1016600009F43CC1C0952C232093010237C1DD232E
:1016700029F081E08E1508F431C107C0E1102EC1B8
:1016800015C0DD2331F0E11017C18C2F0E946F21AE
:1016900025C1EE2059F0893309F01DC19FEFE7EE17
:1016A000F3E09150E040F040E1F713C18C2F0E942D
:1016B000682114C18C2F86958695837019F081302E
:1016C00059F00CC1DD2321F08F2D9C2F937002C0A7
:1016D00080E090E0ABD608C1DD2321F08F2D9C2F58
:1016E000937002C080E090E07AD6FEC08C2F8370A9
:1016F000A9F5D111F7C04F2D429546954770440F7B
:10170000440F8F2D8F7090E09C01042E01C0220F9A
:101710000A94EAF7F4FE08C08FE090E001C0880F59
:101720004A95EAF7809501C080E0C695C695C370DA
:10173000C23069F088F49091FB01C13019F0822B1E
:10174000892302C0922B892B0E941B21CBC0822BA4
:101750009091FB018927F8CF822BF6CFDD2319F07A
:101760008C2F817001C08695882309F4BBC04F2D52
:10177000429546954770440F440F8F2D8F7090E02F
:101780009C01042E01C0220F0A94EAF7F4FE08C05F
:101790008FE090E001C0880F4A95EAF7809501C07C
:1017A00080E0C695C695C370C23059F078F4909128
:1017B000FC01C13019F0822B892309C0922B892B9F
:1017C00006C0822B9091FC01892701C0822B0E94C8
:1017D000012188C0CF70DD2339F08C2F0E941121A8
:1017E0008F2D0E946F217EC08F2D0E9468218C2F2B
:1017F0000E94062177C08F2D22EFD21669F12D1598
:1018000038F030EFD31659F091EFD91601F150C0EE
:10181000E3EFDE1641F1F4EFDF16A9F049C0DD2356
:1018200069F0E1105BC0CF7181E090E001C0880FEA
:10183000CA95EAF79091FC0189271FC021E02E1577
:1018400008F44CC0F0CF80917C0282FD19C0DD23EA
:1018500029F08C2F8F711FC0DD23D9F38C2F8F714E
:101860000E9406213BC0DD2339F0CF7181E001C029
:10187000880FCA95EAF701C080E00E9401212EC0BE
:10188000DD2361F08C2F8F7198E0899F90011124E6
:1018900023602093C4020E94112120C081E00E9495
:1018A0000D15E1E0EE15D0F482E00E940D1516C092
:1018B000DD2321F0EE2069F28F2D9ECEEE2071F215
:1018C000893349F4FFEF27EE33E0F15020403040F8
:1018D000E1F700C000008F2D0E94792188EF8B0D69
:1018E000843010F4CAD516C0CC20A1F08091C40277
:1018F00080FD10C0F80115828695869586950E9418
:101900001121C80187DB8091C40286958695869552
:101910000E94062160E0C8010E9453180BC085E3B5
:1019200005CD80910002811103C089E2F3D400CD7E
:1019300085E3FCCFCDB7DEB7E9E00C94B824089579
:10194000809114010895579A0895A0E0B0E0EBEA61
:10195000FCE00C949824FC018280748081E08483F4
:10196000E5E5F1E09490E4EDF1E0E4910091870386
:101970000695015810E0000F111F012F1127CAE230
:10198000D2E0C12CD12CAA24AA94B12CE919EE2EB4
:10199000F12C22E0281530F0809185038883809116
:1019A00086038983711003C01B821A824AC08B810F
:1019B0008823F9F081508B832FEF829FC00111247F
:1019C0006C8170E00E947F24FB01FF27EB5AFE4FE1
:1019D0008491E82FE9192FEFE29FC0011124B7018C
:1019E0000E947F2480918703689FB00111247A832D
:1019F00028C00E941125B5010E94D52580179107A6
:101A000004F582E0881588F40E941125B5010E9432
:101A1000D52588830E941125209186032695622F63
:101A200070E00E94D525280F29831A8280918703B0
:101A3000843120F0893C18F088EC01C084E18C836B
:101A40008B8396014A81698188810E947D1E2FEFD8
:101A5000C21AD20A25968FE0C816D10409F099CF90
:101A60000E94FC1DCDB7DEB7EDE00C94B4240F93BB
:101A70001F93CF93DF938C01C0E0D0E0F801848105
:101A8000C730D1051CF4882339F002C0811104C08D
:101A90009E014091870302C09E0140E06091860351
:101AA000809185030E947D1E2196CF30D10531F7AC
:101AB0000E94FC1DF801848190E0019681709927B5
:101AC0008483DF91CF911F910F910895A0E0B0E042
:101AD000ECE6FDE00C949924EC014C81042F10E01D
:101AE0009801D8010E94AD259B01AC010E947B2585
:101AF0006B017C01E0E2F0E0E01BF10BA5E5B0E05A
:101B00009B01AC010E947B254B015C019F01DF0121
:101B10000E94EE259B01AC010E9485259B01AC0132
:101B20002C0D3D1D4E1D5F1DC501B4010E948B256E
:101B3000822F022F2A3228F493E0299F900111244A
:101B40000DC025E530E0281B3109C901880F991F18
:101B5000280F391F37FF02C02F5F3F4F359527955C
:101B6000122F1095E12CF12C85E5D82ED01AE1FC2E
:101B700002C08D2D01C0802F9701412F60918603F7
:101B80000E947D1E8FEFE81AF80A9FE0E916F10423
:101B900071F70E94FC1D8C81811102C091E003C08D
:101BA000803219F49FEF9093120190911201890FE6
:101BB0008C83CDB7DEB7ECE00C94B524CF93DF93E4
:101BC000EC01409187039C8190FF02C0842F01C0EB
:101BD00080E091FF02C0642F01C060E092FF40E00E
:101BE0000E94121E8C8190E00196877099278C8349
:101BF000DF91CF9108951F920F920FB60F9211248B
:101C00002F933F934F935F936F937F938F939F9304
:101C1000AF93BF93CF93DF93EF93FF93C091E9000E
:101C2000CF708091EC00D82FD17080FDD0E8109259
:101C3000E9008091F000877F8093F00078940E9403
:101C4000191B1092E9008091F00088608093F000E9
:101C5000CD2BCF70C093E900FF91EF91DF91CF9131
:101C6000BF91AF919F918F917F916F915F914F91B4
:101C70003F912F910F900FBE0F901F901895E8ED98
:101C8000F0E080818E7F80831092E2001092DA0073
:101C90001092E100A0EEB0E08C9181608C93808185
:101CA0008F77808319BCA7EDB0E08C918E7F8C93E9
:101CB00080818F7E80831092820208952091E400BB
:101CC0003091E50095E64091EC00842F817040FF53
:101CD00023C08091E80080FD1DC080917A03882395
:101CE00099F0853099F08091EB0085FD11C040910D
:101CF000E4005091E5002417350729F3915011F0C5
:101D00009A01E1CF84E0089582E0089583E0089588
:101D100081E0089580E008954091E80042FFDDCF22
:101D2000089580917C0387FF11C08091E80082FDB7
:101D300005C080917A038111F8CF11C08091E8002D
:101D40008B770BC080917A03882349F08091E8005B
:101D500080FFF8CF8091E8008E778093E8000895A7
:101D6000982F973068F59093E900981739F07091A3
:101D7000EC002091ED005091F00003C0242F762F4D
:101D800050E021FD02C09F5FECCF3091EB003E7F21
:101D90003093EB003091ED003D7F3093ED003091BA
:101DA000EB0031603093EB007093EC002093ED007A
:101DB0005093F0002091EE0027FDE5CF80E00895DC
:101DC0008F708093E90081E00895A0E0B0E0EBEE31
:101DD000FEE00C949D24C8EDD0E088818F7E88833E
:101DE000E7EDF0E080818160808384E082BF81E064
:101DF0008093820288818E7F888302EE10E0F80152
:101E000010821092DA0081EEC82ED12CF6011082D9
:101E100088818F77888388818068888388818F7D97
:101E2000888319BC10927A0310927B031092790375
:101E30001092780390EEE92EF12CF70180818B7FD0
:101E4000808388818160888342E060E080E088DF71
:101E5000F60180818E7F8083F8018081816080839C
:101E6000808188608083F70180818E7F8083888174
:101E700080618883CDB7DEB7E8E00C94B9241F9267
:101E80000F920FB60F9211242F933F934F935F93AE
:101E90006F937F938F939F93AF93BF93EF93FF9332
:101EA0008091E10082FF09C08091E20082FF05C0BD
:101EB0008091E1008B7F8093E1008091DA0080FFC8
:101EC00028C08091D80080FF24C08091DA008E7FE6
:101ED0008093DA008091D90080FF16C080E189BD2F
:101EE00082E189BD09B400FEFDCF81E080937A03D1
:101EF0008091820281110DC0C2DE67DF8091E20015
:101F000084608093E20005C019BC10927A0310929D
:101F100082028091E10080FF1AC08091E20080FF80
:101F200016C08091E2008E7F8093E2008091E200F3
:101F300080618093E2008091D80080628093D80015
:101F400019BC85E080937A0383E080931601809129
:101F5000E10084FF37C08091E20084FF33C080E15C
:101F600089BD82E189BD09B400FEFDCF8091D80012
:101F70008F7D8093D8008091E1008F7E8093E10077
:101F80008091E2008F7E8093E2008091E200816088
:101F90008093E20080917B03882311F084E007C0E6
:101FA0008091E30087FD02C081E001C083E080935F
:101FB0007A0380917A03843011F081E001C082E0DD
:101FC000809316018091E10083FF2BC08091E20095
:101FD00083FF27C08091E100877F8093E10082E04A
:101FE00080937A0310927B038091E1008E7F80932F
:101FF000E1008091E2008E7F8093E2008091E20018
:1020000080618093E20042E060E080E0A9DE8091A0
:10201000F00088608093F00081E080931601809347
:102020001501FF91EF91BF91AF919F918F917F919A
:102030006F915F914F913F912F910F900FBE0F9035
:102040001F9018952091820330918303261737073C
:1020500048F06115710539F42091E8002E7720933E
:10206000E80001C0B901FC0120E06115710579F1BA
:1020700080917A038823F1F18530F1F18091E800B5
:1020800083FD3CC08091E80082FD2EC08091E80075
:1020900080FFEBCF2091F3008091F20090E0922B33
:1020A0006115710551F08830910538F42191209324
:1020B000F100615071090196F3CF21E0089709F012
:1020C00020E08091E8008E778093E800CECF211148
:1020D000CFCF0AC080917A03882361F0853061F008
:1020E0008091E80083FD0AC08091E80082FFF2CF72
:1020F00080E0089582E0089583E0089581E00895E6
:102100000F931F93CF93DF938B01EA0190917A0392
:102110009430A1F58F708093E9008FEF9091E800E3
:10212000815095FD06C095ED9A95F1F7000081115B
:10213000F5CF8091E80085FF21C0C0DD811115C079
:10214000209789F08091E80085FD06C08091E80025
:102150008E778093E800F1CFF80181918F01809311
:10216000F1002197EDCF90E001C0982F8091E80019
:102170008E778093E80081E0911101C080E0DF91CB
:10218000CF911F910F91089543E050E0BC0184E08E
:10219000B7CF40E250E0BC0184E0B2CFCF93DF93F1
:1021A000EC0148E050E0BC0181E0AADF88E0FE01DC
:1021B000A0E7B3E001900D928A95E1F7DF91CF910E
:1021C0000895603229F4BC0140E250E082E098CFEB
:1021D00008959AE088E10FB6F894A895809360007E
:1021E0000FBE90936000FFCFF89481E08093E000F1
:1021F00080E28093D800E9ECF0E010828FE19EE469
:102200000197F1F700C000001DBA109268001CBCD5
:1022100010BE1FBA10927A0010926E0010926F00DA
:1022200010927100109272001082ECEBF0E01082BC
:1022300014B817B81AB81DB810BA108215B818B863
:102240001BB81EB811BA0C94003F089578941F92E1
:102250000F920FB60F9211248F939F93AF93BF935A
:1022600080917E0290917F02A0918002B0918102C4
:102270000196A11DB11D80937E0290937F02A093D1
:102280008002B0938102BF91AF919F918F910F9087
:102290000FBE0F901F9018952FB7F89480917E0273
:1022A00090917F02A0918002B09181022FBF08958A
:1022B0001F920F920FB60F9211248F939F93AF939B
:1022C000BF9380917D02811113C080917E02909115
:1022D0007F02A0918002B09181024196A11DB11DA3
:1022E00080937E0290937F02A0938002B09381023C
:1022F000BF91AF919F918F910F900FBE0F901F9044
:102300001895CF93DF93EC01C7DF8C1B9D0BDF91FA
:10231000CF91089590911501913021F490917B0215
:1023200097FD03C0E2E0F2E01DC0E82FE695E695D8
:10233000E695EE31E0F4F0E0E65FFD4F877021E0D6
:1023400030E0A90102C0440F551F8A95E2F7CA0187
:1023500080959281892382830895319652E0E830F6
:10236000F50729F092818913F8CF1282F6CF0895EC
:10237000909115019130D1F490917B0297FF16C096
:10238000E82FE695E695E695EE3140F5F0E0E65F5C
:10239000FD4F877021E030E0A90102C0440F551FB6
:1023A0008A95E2F7CA019281892B16C0A4E0B2E0B7
:1023B000EFEF90E02D91821789F0EF3F19F4211192
:1023C00001C0E92F9F5F9630A9F7EF3F39F00E2E3D
:1023D000000CFF0BEE5FFD4F828308950895A3E08C
:1023E000B0E0E5EFF1E10C94A32420917902309163
:1023F0007A0228173907B1F090937A028093790214
:10240000E0917702F0917802309761F00084F185D5
:10241000E02D309739F024E029839B838A83CE0115
:10242000019609952396E2E00C94BF24A3E0B0E066
:10243000ECE1F2E10C94A324209175023091760234
:1024400028173907B1F09093760280937502E091D6
:102450007702F0917802309761F00084F185E02DE9
:10246000309739F023E029839B838A83CE0101963C
:1024700009952396E2E00C94BF24E0917702F09155
:102480007802309739F00190F081E02D309711F00B
:102490000995089580E0089580E0089590917B0269
:1024A00092FF10C041E0282F2471243009F040E051
:1024B00031E0282F2871283009F030E0431711F05F
:1024C0002CE0822793FF10C041E0282F2471243193
:1024D00009F040E031E0282F2871283109F030E080
:1024E000431711F02CE0822730917C0230FF10C09E
:1024F00051E0282F2171213009F050E041E0282FD0
:102500002871283009F040E0541711F029E08227A3
:1025100031FF10C041E0282F2171213109F040E046
:1025200031E0282F2871283109F030E0431711F0ED
:1025300029E0822794FD877E08958238910569F10C
:10254000B0F48133910509F475C048F489329105DE
:1025500009F467C08A32910509F471C00895853382
:10256000910509F459C089339105B9F00895833E66
:10257000910589F138F4803E9105D1F0823E9105B4
:1025800029F10895863E9105C9F1873E9105D9F15B
:10259000843E910509F06CC027C020917B0220FD8C
:1025A00057C021FD55C020917C0223FD5BC00895DA
:1025B00080917B0280FD48C080917C0280FF48C0F2
:1025C00080917B0284FD46C083EE51C080917B02E6
:1025D00082FF3CC0F5CF80917B0282FD37C08091A5
:1025E0007C0280FD35C0ECCF80917C0281FF36C03B
:1025F00080917B0284FD2EC087EE39C080917B02E2
:1026000083FF2AC0F5CF80917B0283FD25C0809196
:102610007C0281FD23C0ECCF80917B0285FD22C02E
:102620001FC080917B0285FD1BC080917C0283FFCF
:1026300019C00AC080917B0286FD16C017C0809128
:102640007B0286FD13C010C089E311C082EE0FC06B
:1026500080EE0DC080E00BC086EE09C084EE07C09E
:1026600085E305C089E203C08AE201C081E390E00E
:1026700008959091EF028091C602892B9091C50236
:102680009923E1F0892B90911501913041F49091BB
:102690007B0297FF04C09EE12CE032E003C096E08D
:1026A00024E032E0F90120E0915028F03191332309
:1026B000D9F32F5FF9CF21111092C502089520910F
:1026C000C30290918A0257E02917A9F030E0529F87
:1026D000F001539FF00D1124E557FD4F71817613E2
:1026E00006C07081781303C07581741306C02F5F14
:1026F0003F4F2770E9CF80E0089581E008957E3054
:10270000B0F46630A0F48330A0F494E5899FF00122
:10271000112486E0789FE00DF11D1124E60FF11DD4
:10272000EE0FFF1FEB5AFD4F85919491089580E0C5
:1027300001C081E090E008951F93CF93DF93FDDE09
:10274000EC01C11580E5D807E8F5C11590E4D9077B
:1027500008F0A6C0C03ED10530F5CD3CD10508F04B
:1027600094C0C83AD10578F4C53AD10508F083C0C1
:10277000C130D10509F47CC008F4EBC0C430D105E8
:1027800008F0EAC0E6C0C33CD10508F0E2C0C85A70
:10279000D0E0CC0FDD1FCC5CDE4F0990D881C02D7E
:1027A000CE019464DAC0C11580E2D80708F0C6C033
:1027B000C11591E0D90708F06BC0C83ED10508F4F7
:1027C000CBC0C7C0C03682E5D80728F5C03492E533
:1027D000D90708F076C0C03282E5D80708F069C092
:1027E000C11592E5D90708F47EC04C2F4695469551
:1027F00080E2489FA0011124C37021E030E0C901AC
:1028000002C0880F991FCA95E2F7EA01C82BD92B9D
:10281000CE019D68A2C0C03A82E5D807B8F48C2FDB
:102820008F71C03892E5D90708F077C086958695F4
:1028300090E2899F90011124C37081E090E002C072
:10284000880F991FCA95E2F79A6864C0C03C82E578
:10285000D80708F469C0C03E92E5D90708F079C0EE
:10286000CF71DD27DC2FCC27CE01806F906A75C039
:1028700081E090E072C0C55AD0E0CF5CDE4F888125
:10288000C82FD0E0CE01906468C0CE01906565C0CD
:102890008D2F04DE182FCE0199274FDE1F7157C0F0
:1028A000CE0199274ADECC27DF70D06A8C2B9D2B76
:1028B00054C0CF71D0E0DC2FCC27CE01816F906A5D
:1028C0004CC08C2F8F718695869590E2899F9001E0
:1028D0001124C37081E090E002C0880F991FCA954F
:1028E000E2F79C6817C08C2F8F71D8DD95E0D695E4
:1028F000C7959A95E1F7CF70D0E0DC2FCC27282F31
:1029000030E084FF05C084E0220F331F8A95E1F791
:10291000D069CE01822B932B20C090E0D82FCC27FA
:10292000CE01846F906A19C08C2F8F71B7DD8F71C3
:1029300090E0D82FCC27CE0190620FC08D2F8F71E1
:10294000ADDD182FCE019927F8DD1F719062912B14
:1029500004C080E090E001C0CE01DF91CF911F91D3
:10296000089580959091EF0289238093EF02089556
:1029700080911501813061F580917B0287FF28C02D
:1029800078DE80930B0240E250E067EC72E08AE070
:1029900092E00E943E26892B09F43EC080E2EAE0E4
:1029A000F2E0A7ECB2E001900D928A95E1F7E09198
:1029B0007702F0917802309779F10480F581E02D6B
:1029C000309751F186E080930A028AE092E023C0BA
:1029D00050DE8093020248E050E067EE72E082E051
:1029E00092E00E943E26892BB9F088E0E2E0F2E016
:1029F000A7EEB2E001900D928A95E1F7E09177029F
:102A0000F0917802309741F00280F381E02D309709
:102A100019F082E092E0099508959091C4028095A2
:102A200089238093C402282F277069F4981759F0DE
:102A300090917C0292FF07C08695869586950E94AC
:102A400006211092C402089590917C0292FB2227E5
:102A500020F9281771F080FB92F990937C02609125
:102A60007B0270917C0284E090E00E944B2582E022
:102A7000D4CF08958091C30290918A02891719F0EA
:102A80008F5F8770FBCF0895CF93DF93809189028A
:102A900082958F7009F04DC080918802882309F4D7
:102AA00048C08091C30240918A0250918402609193
:102AB0008302C0918502D091860277E08417C9F124
:102AC00090E0789FF001799FF00D1124DF01A55768
:102AD000BD4F14962C911497222341F111962C91FD
:102AE0001197251323C02C91261320C015962C91E5
:102AF000159721111BC012962D913C9113972C1BF9
:102B00003D0B283C310590F4809189028F708061E3
:102B100080938902EF56FD4F80818F7080618083A2
:102B200083E892E00E940A08A5DF03C0019687703F
:102B3000C5CFDF91CF910895A4E1B0E0E2EAF5E1DD
:102B40000C9499248C0186E0F801DE011F96019017
:102B50000D928A95E1F7F8018481E58093E8892E4A
:102B600092E0992E9091870291111FC0882309F459
:102B70005FC1EE2009F441C0C8010E942521F82E52
:102B80008823D9F187E0F801D40101900D928A954C
:102B9000E1F780918702813031F480918302909136
:102BA00084020E948C2070DF45C1F801D080C18072
:102BB000A280B380F0908802209185023091860235
:102BC000FF2009F4E4C0A501421B530B483C51050A
:102BD00008F09AC0882309F42DC180918902282F1A
:102BE000207F90918402222361F09C1509F45EC03D
:102BF000C8010E942521811161C0C8010E940A08F4
:102C000017C19C1113C0909183029D110FC0E11058
:102C10000DC08F7080618093890283E892E00E94EA
:102C20000A0880918902F801868300C1E11038C04A
:102C300040E06C2D8D2D43DD40E06C2D8D2D3FDD72
:102C4000E82E8111F3C0DF86C88A8F8598890E949B
:102C50008C20292F22952F70243020F49F70223051
:102C600028F009C02A50223080F014C0992349F07E
:102C7000811107C013C0992321F0F8019681907F3C
:102C800069F0805E883030F409C0803F38F0815FA1
:102C9000833020F0C8010E940A08EF2CFE2CCAC025
:102CA00080918902816080938902C0C090918302E3
:102CB0009D119ECFE1109CCFF80197C0EE2009F442
:102CC0009CCF20918902822F82958F7090E002978D
:102CD0008CF0809183029091840299878887BB86CB
:102CE000AA86809187028C871D862E87CE01089642
:102CF0000E940A0887E0F801A3E8B2E001900D9273
:102D00008A95E1F7C1DE94C090918902292F207F36
:102D100051F483E892E00E940A0887E0F4011192DE
:102D20008A95E9F783C0882309F484C080918402DE
:102D30008C110CC0809183028D1108C0E11006C077
:102D4000F8019683C8010E940A086AC0C8010E945F
:102D50002521882309F451CFEE2009F44ECF20918C
:102D60008902822F82958F7090E002971CF28091E9
:102D70008302909184029A838983BC82AB82809182
:102D800087028D831E822F83CE010196B1CFA21AB6
:102D9000B30AF8ECAF16B10408F042C0882309F476
:102DA00047C0FE2CEE2009F428CF809184028C11BC
:102DB00029C0809183028D1125C09091890290FDD8
:102DC00018C0892F82958F70282F30E0211531058A
:102DD00081F0F80196832F30310541F08F5F982FF5
:102DE0009295907F86818F70892B8683C8010E947F
:102DF0000A0887E0F801A3E8B2E001900D928A95F5
:102E0000E1F718C0C8010E942521811173CF80917C
:102E10008902816080938902C8010E940A080AC061
:102E200087E0F40111928A95E9F704C0F12C02C001
:102E3000FF24F3948F2D6496ECE00C94B524EF926C
:102E4000FF920F931F93CF93DF9380911001909186
:102E50001101892BC9F08091F2028F5F8093F202F9
:102E6000811112C038D390E090931101809310012A
:102E7000892B51F42FEF83EC99E021508040904052
:102E8000E1F700C00000A5D908EC11E0C0E0D0E0F7
:102E900087E0E82EED0E8D2F4AD28E2D48D28D2F51
:102EA000A6D28F73F8019081891721F08083FF24C7
:102EB000F39401C0F12C8E2D9AD28F73F801978173
:102EC000891719F0878381E001C080E0F82ACF29B3
:102ED0007AD2DF5F0F5F1F4FD730D1F6CC2351F08E
:102EE00081E08093F502D8D99093F4028093F302A5
:102EF000C0E023C08091F5028823F9F00091F3022D
:102F00001091F402C9D9801B910B4497B0F04EE0A8
:102F100050E068EC71E08DED91E00E943E26892B37
:102F200051F08EE0E8ECF1E0ADEDB1E001900D92F2
:102F30008A95E1F7C1E01092F5028C2FCDB7DEB78C
:102F4000E6E00C94BB24A6E0B0E0E9EAF7E10C94DB
:102F5000A124A2D98C018091F0029091F10208176E
:102F6000190771F019821A8297D9682F49815A81FD
:102F7000792F80E090E0C0D01093F1020093F0022E
:102F80002696E4E00C94BD24FC01EE0FFF1FEE0F2B
:102F9000FF1FDF01A850BD4F11966C9311974C9302
:102FA00012962C93942F241708F4922F691708F483
:102FB000962FDF01A850BD4F13969C931397691B62
:102FC00011966C931197491B4C93291B12962C93C5
:102FD000EC5CFC4F9383618340832283089590E0EF
:102FE000FC01E258FE4F208121111AC0F894FC0127
:102FF000E059FE4F8081E82FE295EF70F0E031A1BB
:10300000282F2F7081E090E001C0880F2A95EAF701
:10301000982F9095932391A392A1892B82A37894C2
:1030200008952AE030E04CE350E064E373E084E884
:103030000E9461238BB18F779BB190682FB7F89472
:10304000E8EFF2E033E0E433F30789F0319148E050
:103050009BB9000000C037FF8BB9330F000000C0E0
:1030600000C000C08BB900C04A9591F7EBCF2FBFCD
:103070008FE594E00197F1F700C000000895982FC4
:1030800092959F7019F0892F24E001C020E0982FBD
:103090009695969511F02E5F892F982F969509F0A9
:1030A0002F5F822F0895A6E0B0E0E9E5F8E10C94E7
:1030B000A22426E0FC01DE01119601900D922A95D2
:1030C000E1F7FC01258189819A81222351F0662351
:1030D00041F0F3D7182F682F89819A810E94CC2064
:1030E00003C00E949820182F69817A81812F07DB05
:1030F0002696E3E00C94BE24A4E3B0E0E2E8F8E115
:103100000C94A1244FA758AB69AB7AAB8BAB9CABAB
:1031100091111092C6028E01085D1F4F87E0D80101
:103120001D928A95E9F786E0FE01BF96D8010190CD
:103130000D928A95E1F78CA58823D1F061E0C80152
:10314000B2DF8091FD01882381F08DA5811102C03D
:1031500087E001C086E0898388A58A8389A58B835F
:103160008EEF8C83CE010196FBD161E0C8019BDF1D
:1031700087E0FE01B896DE01919601900D928A9546
:10318000E1F7CE018196D8DC81112BC087E0FE01EA
:10319000B196DE01119601900D928A95E1F76DA12D
:1031A0006623F9F020918A0230E0C9010196877008
:1031B00099274091C30250E08417950751F16D8320
:1031C00097E0929FD001939FB00D1124A557BD4F5A
:1031D000FE01319601900D929A95E1F780938A0253
:1031E00049DC17E08091C30290918A028917F1F0BF
:1031F000189FC001112485579D4F9EDC8823B1F094
:103200008091C30290E00196877099278093C30252
:10321000E9CF0E94472110928A021092C302E3E88C
:10322000F2E087E0DF011D928A95E9F7E496E4E099
:103230000C94BD240E9447212FEF84E39CE0215091
:1032400080409040E1F700C00000089527982F9833
:103250002F98089526982E982E98089525982D98A1
:103260002D980895279A2F9A0895269A2E9A0895B0
:10327000259A2D9A0895CF93DF93D82F00DFC82F7A
:103280005E98ECDFE7DFE2DF8C2F90E0FC01319706
:10329000E730F10570F4E157FF4F0C94E825E8DFC3
:1032A00008C0E6DFE2DF05C0E3DF02C0E1DFDDDF0B
:1032B000D9DF8D2FDF91CF910895A0E2B0E0E3E652
:1032C000F9E10C94A224182F8091FD018823D1F0FC
:1032D0008091FB01812BD3DE9091F702891791F049
:1032E0008093F7028FE39CE90197F1F700C000009B
:1032F00085E089838091F7028A838EEF8B83CE01EC
:1033000001962ED1812FA096E3E00C94BE24A0E27A
:10331000B0E0EDE8F9E10C94A3249FEF99838A8350
:10332000CE0101961DD1A096E2E00C94BF24A1E04D
:10333000B0E0EDE9F9E10C94A1248730F8F4209194
:10334000100130911101232BD1F521E030E0A901CA
:1033500002C0440F551F8A95E2F7CA018095898300
:103360000AE010E0AE014F5F5F4F62E180E40E942F
:10337000A723909311018093100121C090E0FC01DC
:10338000E258FE4F208121111AC0F894FC01E05947
:10339000FE4F8081E82FE295EF70F0E031A1282FF9
:1033A0002F7081E090E001C0880F2A95EAF7932FF3
:1033B000982B91A392A18095892382A3789421963A
:1033C000E4E00C94BD240F931F93CF9305E811E024
:1033D000C7E0F80181918F01811102C08C2FFFDDC0
:1033E000CF5FCE30B1F7CF911F910F910895A1E03B
:1033F000B0E0EDEFF9E10C94A124082F8730C8F478
:103400008091100190911101892BD9F519820AE060
:1034100010E021E030E0AE014F5F5F4F63E180E4F8
:103420000E94EF2390931101809310018981809570
:1034300029C07DDFAAE6B1E020E030E010E051E0F5
:103440004D91E42FE295EF70F0E080A190E04F7095
:1034500002C0959587954A95E2F780FD07C0852FB4
:10346000022E01C0880F0A94EAF701C080E0182BF1
:103470002F5F3F4F2630310519F7802FB0DD812FA8
:1034800001C080E02196E4E00C94BD24CF93DF934B
:10349000AAE6B1E040E751E061E070E0F8948D9178
:1034A000E82FE295EF70F0E021A18F70EB0102C0F0
:1034B000CC0FDD1F8A95E2F7CE019C2F90959223C9
:1034C00091A392A1892B82A378944A175B0731F7C5
:1034D000DF91CF910895A2E0B0E0E1E7FAE10C942A
:1034E000A12480E290E090931101809310018091DB
:1034F000F60281110EC00E94E42281E08093F60260
:103500002FEF83ED90E3215080409040E1F700C021
:10351000000019828FE38A830AE010E022E030E0A5
:10352000AE014F5F5F4F60E080E40E94A72390935D
:10353000110180931001892B69F422E030E0AE0183
:103540004F5F5F4F6CE080E40E94A72390931101CE
:1035500080931001809110012296E4E00C94BD2428
:1035600040E250E0BC0182E00C9480100F93CF93B6
:10357000DF93C4E8D3E0488159816A817B8188E088
:1035800090E00E944325288139814A815B816C81CA
:103590007D818E819F8100E20E941526622F83E249
:1035A00090E00E943125DF91CF910F9108954F92C5
:1035B0005F926F927F928F929F92AF92BF920F9382
:1035C000CF93DF9388E090E00E9427252B013C01F8
:1035D000C4E8D3E0688359826A827B821C821D82A0
:1035E0001E821F8283E290E00E941F25282F30E078
:1035F00040E050E060E070E080E090E000E20E9497
:10360000FA252429352946295729288339834A83CD
:103610005B836C837D838E839F83DF91CF910F913A
:10362000BF90AF909F908F907F906F905F904F90E2
:103630000895AAE2B0E0EFE1FBE10C94A224ECE7EC
:10364000F3E084E893E02091F10021938E179F0727
:10365000D1F780917D03833009F463C030F4813069
:1036600071F0823009F4A1C0B8C08A3009F48DC06D
:103670008B3009F46EC0893009F0AFC020C0809152
:103680007C03813A09F0A9C08091E800877F80938C
:10369000E8008091800390918103892B21F468E0F8
:1036A00080E793E003C060E080E090E070E00E947B
:1036B00022108091E8008B778093E8008EC0809183
:1036C0007C03813209F089C080918003909181034D
:1036D000009719F0029709F080C08091E800877F79
:1036E0008093E8008091E80082FD05C080917A0314
:1036F0008111F8CF72C02091F3008091F20090E028
:10370000922B029731F48091F100813011F08630D4
:1037100021F48091F100809314018091E8008B776F
:1037200058C080917C03813A09F057C08091800392
:1037300090918103892B09F050C08091E800877F28
:103740008093E8008091E80080FFFCCF8091150114
:103750003BC080917C03813209F03FC0809180039F
:1037600090918103892BC9F58091E800877F809330
:10377000E8000E94910E81E090917E03911101C0BA
:1037800080E08093150183D528C080917C0381322D
:1037900021F58091E800877F8093E8000E94910ED8
:1037A00080917F038093130118C080917C03813A3C
:1037B000A1F48091E800877F8093E8008091E80081
:1037C00080FFFCCF809113018093F1008091E8008D
:1037D0008E778093E8000E94910E8091E80083FF2D
:1037E000F3C180917C0390917D03492F50E04A30D2
:1037F000510508F0E9C1FA01EA56FF4F0C94E8259B
:10380000803821F0823809F0DFC108C08091780348
:1038100090917903992389F082600FC08091800391
:103820008F70873008F0D0C18093E9008091EB0061
:1038300085FB882780F91092E9009091E800977F36
:103840009093E8008093F1001092F1007DC1282F41
:103850002D7F09F0B9C1882319F0823061F0B4C11D
:1038600080917E03813009F0AFC1933009F080E090
:10387000809379032EC080917E0381112AC08091AC
:1038800080038F702FEF280F263008F09DC18093A2
:10389000E9002091EB0020FF1CC0933021F48091BF
:1038A000EB00806214C09091EB0090619093EB006C
:1038B00021E030E0A90102C0440F551F8A95E2F7CC
:1038C0004093EA001092EA008091EB0088608093B8
:1038D000EB001092E9008091E800877F8093E80078
:1038E0000E94910E71C181116FC110917E031F77EB
:1038F0008091E3008078812B8093E3008091E80041
:10390000877F8093E8000E94910E8091E80080FFFD
:10391000FCCF8091E30080688093E300111102C026
:1039200082E001C083E080937A034EC180588230E8
:1039300008F04AC120917E0330917F032C3D53E073
:10394000350779F583E08A838AE289834FB7F89453
:10395000DE01139620E03EE051E2E32FF0E05093C9
:103960005700E49120FF03C0E295EF703F5FEF70D6
:103970008E2F90E0EA3010F0C79601C0C0968D936C
:103980009D932F5F243149F74FBF8091E800877FD7
:103990008093E8006AE270E0CE0101960E94221056
:1039A000C1C08091800390918103432F55274330FC
:1039B0005105B1F068F44130510509F414C14230A9
:1039C000510509F001C18BE590E0E0E2F5E057C058
:1039D0004132510589F14232510509F43CC0F4C02D
:1039E000C901992781309105B9F070F082309105B5
:1039F000D9F0039709F0E8C0EDE8F5E0E4918E2FE7
:103A000090E0EDE8F5E038C0EBEEF5E0E4918E2FC4
:103A100090E0EBEEF5E030C0E1ECF5E0E4918E2FC4
:103A200090E0E1ECF5E028C0E9EAF5E0E4918E2FC2
:103A300090E0E9EAF5E020C08330910508F0C4C0C9
:103A4000880F991FFC01EB56FE4F0190F081E02D8D
:103A500089E090E014C08330910508F0B5C0FC0106
:103A6000EE0FFF1FE157FE4F0190F081E02DDC01CA
:103A7000A457BE4F8C9190E0009709F4A5C0209107
:103A8000E800277F2093E800209182033091830390
:103A90008217930708F49C0140E02115310589F154
:103AA00080917A03882309F43DC08530D9F1809153
:103AB000E80083FD37C08091E80082FD2FC080912F
:103AC000E80080FFEACF4091F3008091F20090E09F
:103AD000942B2115310559F08830910540F444911B
:103AE0004093F1003196215031090196F2CF41E027
:103AF000089709F040E08091E8008E778093E80015
:103B0000CCCF4111CDCF0AC080917A03882351F0E8
:103B1000853041F08091E80083FD04C08091E80089
:103B200082FFF2CF8091E8008B778093E8004CC051
:103B3000803809F049C08091E800877F8093E800D1
:103B400080917B038093F1008091E8008E77C6CE50
:103B500081113AC080917E0390917F03992702974B
:103B60009CF58091E800877F8093E80010917E03A8
:103B700010937B030E94910E111106C08091E30007
:103B800087FD02C081E001C084E080937A0342E0B7
:103B900061EC81E00E94B00E42E261EC84E00E94A0
:103BA000B00E42E261EC82E00E94B00E42E260ECB4
:103BB00083E00E94B00E80917A03843011F081E09E
:103BC00001C082E0809316018091E80083FF10C05D
:103BD0008091E800877F8093E8008091EB0080620D
:103BE0008093EB0005C082E190E0EBE7F5E047CF82
:103BF000AA96E3E0C3C60895CF93DF938091840330
:103C000080FF04C00EDADF91CF910895C0E0D0E0CC
:103C100020E040E060E0CE01B7D92196CF30D10559
:103C2000B9F7F0CFFF920F931F93CF93DF9390914B
:103C3000840390FF0FC0F42E062F182FC0E0D0E0B1
:103C40002F2D402F612FCE019FD92196CF30D10546
:103C5000B9F7D2DFCDB7DEB7E5E08EC69091840329
:103C600090FF09C0762F682F842FD6D3962F672F09
:103C7000482F892FD7CF0895CF93DF93EC01E4E845
:103C8000F3E0438162818C81E9DF8C818F5F8C83DB
:103C9000DF91CF910895CF93DF93EC01EC81F0E0B9
:103CA000EB5AFE4F4491E4E8F3E062818181D6DF74
:103CB0008C818F5F8C83DF91CF91089580918803F1
:103CC000882319F081508093880384E893E04ECCD8
:103CD00080918803833018F48F5F8093880384E891
:103CE00093E044CCE4E8F3E085E2808311828FEF37
:103CF000828383831482CF0139CCCF93762FC22F56
:103D0000682F842F89D3472F282F8C2F90E03CD900
:103D1000CF910895A0E0B0E0EFE8FEE109C6182FCA
:103D2000D62E042FC22E9091840390FF59C0E92F04
:103D3000E695E695AE2FB0E0A556BE4F8C918093E8
:103D400092039C7F943051F4612F7D2D842F64D396
:103D5000962F672F482F892F65DF37C0823019F4DF
:103D60000091870332C0863019F4109185032DC06D
:103D70008930D9F3893149F5E9518E2F8170782E38
:103D8000E695F0E0E151FA4FE491CE2FD0E0A12C7E
:103D9000B12CE12CF12C8FE0882E912CC501B401BF
:103DA000AED5812F711002C0860F01C0861B97010E
:103DB000402F6D2DA2DF8FEFE81AF80AAC0EBD1E62
:103DC0008FE0E816F10451F717DF10938503D092C6
:103DD000860300938703CC2019F084E893E0C6DBC8
:103DE000CDB7DEB7EDE0C0C5E4E8F3E043812CE0F9
:103DF000421B08F440E021E0628181818BCFE4E83E
:103E0000F3E043812CE0420F08F44FEF21E06281A0
:103E1000818180CFE4E8F3E062812FEF621B08F438
:103E200060E021E04381818175CFE4E8F3E06281C5
:103E30002FEF620F08F46FEF21E0438181816ACF99
:103E4000E4E8F3E0818121E0438162818C5062CF1C
:103E5000E4E8F3E0818121E043816281845F5ACF0D
:103E6000CF93DF93C0E0D0E020E040E060E0CE01FF
:103E70008BD82196CF30D105B9F7C0E0D0E0809142
:103E80009503082E000C990BC817D9078CF0809168
:103E90002301082E000C990B8C179D074CF09E01F6
:103EA00040918703609186038091850326DF05C0DA
:103EB00020E040E060E0CE0167D82196CF30D10508
:103EC000F1F69ADE8091220190919503980F9093DC
:103ED000950320912301280F20932301121614F437
:103EE0009E301CF0819580932201DF91CF9108953F
:103EF000A0E0B0E0EDE7FFE121C5FC01828180FF99
:103F000003C0FF24FA9402C0FF24F394C0E0D0E081
:103F10009FE0D92E20E040E060E0CE0135D804E0FB
:103F200010E0E12C809194038E0D803124F06D2DF2
:103F30002FD6892F02C087FD815F082E000C990BB8
:103F4000C817D90789F480918703809FA001819FBA
:103F5000500D112455954795559547959E016091B3
:103F6000860380918503C9DEEF0C01501109D1F65B
:103F70002196CF30D10571F63FDE80919403F1E0B8
:103F8000FF1206C0811102C08EE006C0815004C03D
:103F900090E00196BE0109D680939403CDB7DEB7B9
:103FA000E7E0E8C4EF92FF921F93CF93DF93EC0119
:103FB00010E0E12CF12C8C819701409187036091F6
:103FC0008603810F9ADE8FEFE81AF80A1F5E1F3F03
:103FD00091F712DE9A818C8190FF02C08F5F01C041
:103FE00081508C83DF91CF911F91FF90EF900895C6
:103FF000609184036695669570E04BE050E087E140
:1040000091E02FD6892B19F481E0809393030E94CD
:104010004C1190938D0380938C03089590918403A9
:1040200090FF2EC09370811102C0946007C08B3244
:1040300010F0986A03C0880F880F982B9093840320
:10404000662319F084E893E091DA60918403669521
:10405000669570E04BE050E087E191E002D6892B55
:1040600019F01092930301C0C3DF81E080938F03A6
:1040700020E04091870360918603809185034ACEBA
:104080000895E4E8F3E080818160808361E08695B3
:104090008695C4CF8091840386958695815009F4D6
:1040A0008AE261E0BBCF80918403869586958F5F1D
:1040B0008B3208F081E061E0B1CFCF92DF92FF92C6
:1040C0000F931F93CF93DF936C010091FC018091BC
:1040D000FB01082BC7E0D0E010E0C8010C2E02C0A5
:1040E000959587950A94E2F780FD04C02197A8F77B
:1040F000F12C09C0FC2EB6018C2F0E947F130E9468
:104100009C13019799F38F2DDF91CF911F910F9100
:10411000FF90DF90CF900895CF93DF93EC01CDDF38
:10412000BE010E947F130E949C13DF91CF910895DE
:10413000292F9E3078F5863068F590E036E0239F91
:10414000800D911D1124682F677023E09695879547
:104150002A95E1F7FC01EE0FFF1FE80FF91FEA5661
:10416000FC4F40E050E080E0219130E0062E02C09C
:10417000369527950A94E2F721703327042E01C063
:10418000220F0A94EAF7822B4F5F5F4F43305105AD
:1041900059F7089580E00895292F9E3088F58630DC
:1041A00078F590E036E0239F800D911D1124282F93
:1041B000277051E001C0550F2A95EAF723E0969544
:1041C00087952A95E1F7FC01EE0FFF1FE80FF91F15
:1041D000EA56FC4F20E030E070E04081CB01022E37
:1041E00002C0969587950A94E2F78170819584279D
:1041F0008523842781932F5F3F4F2330310569F753
:1042000008955BD838D88093FC01089521E030E010
:1042100001C0220F8A95EAF720958091FC01822344
:10422000F0CF21E030E001C0220F8A95EAF78091BB
:10423000FC01822BE6CFCF93C82F8091FC018C2B01
:104240003CD8C093FB01CF910895FC012481222327
:10425000D1F08081918160DF92959F70963079F0E6
:1042600010F4925001C09A50923068F4803F69F087
:1042700018F4883E40F409C0843F29F406C0883E03
:1042800020F0813F11F080E0089581E008951092C0
:10429000EF0280911501813041F480917B0287FF0C
:1042A00004C08EE1ECE0F2E003C086E0E4E0F2E07E
:1042B000DF011D928A95E9F780E090E00E941612D6
:1042C00080E090E00E94EF111092C6020C94B814A6
:1042D000882321F00E94B1140C94B8140895882307
:1042E00039F09091EF02892B8093EF020C94B8146F
:1042F0000895882329F19CEF980F913A18F40E94B1
:104300008A110DC090E2980F983058F4877091E0B0
:1043100001C0990F8A95EAF7892F0E94B1140C9475
:10432000B8149BE5980F933020F480E090E00C9453
:104330001612885A8B3120F480E090E00C94EF1133
:104340000895CF93882309F465C0C82F8CEF8C0F94
:10435000813AA0F5809115018130E1F480917B02D2
:1043600087FF18C0EC2FE695E695E695F0E0E65F4E
:10437000FD4F8281282F30E04C2F477081E090E084
:1043800002C0880F991F4A95E2F782239323892B55
:1043900061F410C0E4E0F2E08AE092E02191C217FB
:1043A00021F08E179F07D1F705C08C2F0E948A112C
:1043B0000E94B8148C2F0E94B81110C080E28C0F9C
:1043C000883078F4C77081E090E001C0880FCA950A
:1043D000EAF79091EF02892B8093EF020E94B814C4
:1043E00019C0EBE5EC0FE33040F4F0E0EF5CFE4F7A
:1043F000808190E00E9416120DC0C85ACB3150F453
:10440000EC2FF0E0EE0FFF1FEC5CFE4F80819181FE
:104410000E94EF11CF910895A0E0B0E0E1E1F2E257
:104420008CC27B01E82FF0E0F11006C0EC50FA4F8F
:104430008491782F682F72C02F2D30E0EC50FA4F06
:10444000E491FE2F0E2F10E046E0649FC00111247E
:10445000CFEFD0E0BE0153D2AB016BEA6403C001E1
:10446000659F900D11248E0D911D8E0D911D982F1D
:10447000990F980FBE01621B730B609FD001619F63
:10448000B00D709FB00D11248B2FF99EB001112437
:10449000672F77277E01E61AF70AB701609F700140
:1044A000619FF00C709FF00C11246E01C91AD108A5
:1044B000C29EB001C39E700DD29E700D1124272F95
:1044C0003327C21BD30BC09F9001C19F300DD09FDB
:1044D000300D1124732F4230510591F048F44115ED
:1044E0005105D9F041305105B1F47E2FEF2D15C0A3
:1044F0004430510561F040F04630510571F00BC079
:10450000EB2F832F7F2F09C07F2DEB2F02C0E32FCE
:104510007B2F8F2F02C07B2F8F2D6E2FCDB7DEB755
:10452000E8E027C2EF92FF920F931F93CF93DF93A0
:10453000182FEB011092BC0084EA8093BC000E940B
:104540004C117C018091BC0087FD0DC0CF3F8FEFE7
:10455000D807C1F3C7010E948111C817D90790F786
:104560008EEF9FEF2DC08091B900887F883041F099
:104570008091B900887F803119F08FEF9FEF20C0C4
:104580001093BB0084E88093BC000E944C118C0106
:104590008091BC0087FD0BC0CF3F8FEFD807C1F3E0
:1045A000C8010E948111C817D90790F7D9CF80910F
:1045B000B900887F883111F08034F9F680E090E00E
:1045C000CDB7DEB7E6E0D7C11092B9008CE080939A
:1045D000B80008950F931F93CF93DF93EB0180935F
:1045E000BB0084E88093BC000E944C118C01809138
:1045F000BC0087FD0DC0CF3F8FEFD807C1F3C801C6
:104600000E948111C817D90790F78EEF9FEF0CC059
:104610002091B900287F81E090E0283211F480E0F9
:1046200090E0919581959109DF91CF911F910F9124
:1046300008950F931F93CF93DF93EC0184EC809345
:10464000BC000E944C118C018091BC0087FD0DC004
:10465000CF3F8FEFD807C1F3C8010E948111C8175F
:10466000D90790F78EEF9FEF03C08091BB0090E0D9
:10467000DF91CF911F910F9108950F931F93CF93C7
:10468000DF93EC0184E88093BC000E944C118C0104
:104690008091BC0087FD0DC0CF3F8FEFD807C1F3DD
:1046A000C8010E948111C817D90790F78EEF9FEFBC
:1046B00003C08091BB0090E0DF91CF911F910F91DB
:1046C0000895A0E0B0E0E6E6F3E232C1782EB62E1F
:1046D000A72E6A0189010E944C114C010431110579
:1046E00050F00F3F8FEF180749F0C80164E170E008
:1046F00006D1EB0105C0C1E0D0E002C0C5E0D0E0CA
:10470000BE01872D0FDF7C0197FD05C0CB2DDA2D73
:10471000CC0EDD1E11C00F3F8FEF180789F3C401C7
:104720000E9481110817190758F7F0CFF7FC07C04E
:10473000B80189914FDF7C01CC15DD05B9F784E91B
:104740008093BC00C701CDB7DEB7EDE00DC1A0E09E
:10475000B0E0ECEAF3E2EBC0682E762E5A01690174
:104760000E944C114C010431110550F00F3F8FEFA6
:10477000180749F0C80164E170E0C1D0EB0105C041
:10478000C1E0D0E002C0C5E0D0E0BE01862DCADEA7
:104790007C0197FF0BC00F3F8FEF1807B1F3C401E7
:1047A0000E9481110817190780F711C0B801872DE1
:1047B00011DF7C01E501CA0CDB1CCC15DD0539F0ED
:1047C000F7FC05C0B801899105DF7C01F6CF84E9CB
:1047D0008093BC00C701CDB7DEB7EEE0C4C0A0E057
:1047E000B0E0E4EFF3E2A3C0782E662E7A01E9018F
:1047F0000E944C115C010431110550F00F3F8FEF06
:10480000180751F0C80164E170E079D06B0107C06E
:10481000CC24C394D12C03C025E0C22ED12CB601E8
:10482000872D80DE4C0197FF0BC00F3FEFEF1E0777
:10483000B1F3C5010E9481110817190780F728C03C
:10484000B801862DC7DE4C0197FD22C0F72DF1601F
:104850007F2E0E944C115C010431110518F10F3FAD
:104860008FEF180719F1C80164E170E048D06B01BF
:10487000B601872D57DE4C0197FD1CC067012197BB
:10488000C6018E199F098C179D0750F597FE1DC014
:1048900084E98093BC00C4011816190664F580E011
:1048A00090E029C0CC24C394D12CE2CF85E0C82E5F
:1048B000D12CDECF0F3FEFEF1E07D1F2C5010E94D2
:1048C000811108171907A0F6D9CFC801B2DE4C0133
:1048D00097FD02C0F6018083FFEFCF1ADF0AD0CF29
:1048E00097FCD6CFC801C9DE4C0197FDD1CFCE0DC4
:1048F000DF1D8883CDCFCDB7DEB7EEE034C0AA1B75
:10490000BB1B51E107C0AA1FBB1FA617B70710F0BA
:10491000A61BB70B881F991F5A95A9F780959095EC
:10492000BC01CD0108952F923F924F925F926F92FA
:104930007F928F929F92AF92BF92CF92DF92EF922F
:10494000FF920F931F93CF93DF93CDB7DEB7CA1BB0
:10495000DB0B0FB6F894DEBF0FBECDBF09942A88DB
:10496000398848885F846E847D848C849B84AA8483
:10497000B984C884DF80EE80FD800C811B81AA8110
:10498000B981CE0FD11D0FB6F894DEBF0FBECDBFDB
:10499000ED0108958F929F92AF92BF92CF92DF92D6
:1049A000EF92FF92CF93DF93EC01688179818A8146
:1049B0009B81611571058105910521F464E279ED12
:1049C0008BE597E02DE133EF41E050E078D04901ED
:1049D0005A019B01AC01A7EAB1E48DD06B017C01C7
:1049E000ACEEB4EFA501940192D0DC01CB018C0DAB
:1049F0009D1DAE1DBF1DB7FF03C00197A109B048A3
:104A000088839983AA83BB839F77DF91CF91FF909F
:104A1000EF90DF90CF90BF90AF909F908F900895D0
:104A2000B9CF80E091E0B6CFA0E0B0E08093000184
:104A300090930101A0930201B09303010895F999A5
:104A4000FECF92BD81BDF89A992780B50895A6E161
:104A5000B0E044E050E025C0A8E1B0E042E050E022
:104A600020C0262FF999FECF92BD81BDF89A0197FB
:104A700000B4021639F01FBA20BD0FB6F894FA9AA6
:104A8000F99A0FBE08950396272FECDFEADF252F52
:104A9000E9DF242FE7CF0196272FE4DFE2CFDC0107
:104AA000CB01FC01F999FECF06C0F2BDE1BDF89A39
:104AB000319600B40D9241505040B8F70895052E3C
:104AC00097FB16F400940FD057FD05D024D007FCB7
:104AD00002D046F408C050954095309521953F4F3F
:104AE0004F4F5F4F089590958095709561957F4FDA
:104AF0008F4F9F4F089531D0A59F900DB49F900D7B
:104B0000A49F800D911D11240895B7FFF4CFF3DF0A
:104B1000821B930B0895A1E21A2EAA1BBB1BFD0159
:104B20000DC0AA1FBB1FEE1FFF1FA217B307E4078C
:104B3000F50720F0A21BB30BE40BF50B661F771FE4
:104B4000881F991F1A9469F76095709580959095C4
:104B50009B01AC01BD01CF010895A29FB001B39F9D
:104B6000C001A39F700D811D1124911DB29F700D76
:104B7000811D1124911D0895991B79E004C0991F8E
:104B8000961708F0961B881F7A95C9F780950895A7
:104B900087FB082E062687FD819567FD6195ECDF72
:104BA0000EF4919507FC8195089597FB072E16F456
:104BB000009406D077FD08D0A2DE07FC05D03EF4B5
:104BC000909581959F4F0895709561957F4F0895B9
:104BD000EE0FFF1F0590F491E02D0994BEDF332303
:104BE00012F48A1B9B0B01C0B8DFB7FF0895821B2C
:104BF000930B08950F93083090F0982F872F762FFE
:104C0000652F542F432F322F22270850F4CF220F25
:104C1000331F441F551F661F771F881F991F0A9552
:104C2000B2F70F91089597FB10F8169400080F93B0
:104C3000083098F00850232F342F452F562F672F18
:104C4000782F892F902DF4CF059497958795779598
:104C5000679557954795379527950A95AAF70F9128
:104C60000895FC014150504030F001900616D1F7F4
:104C70003197CF010895882799270895FB01DC011A
:104C800004C08D910190801921F441505040C8F723
:0A4C9000881B990B0895F894FFCFDC
:104C9A0001000000A00CCE10C9109F0CC410E11036
:104CAA002000010000010001191A1B1C1D1E1F20F3
:104CBA002122010261374C30442F447A726E5937EF
:104CCA0000818283E200E900EA00B500B600B7007D
:104CDA00CD008301CC008A019201940121022302B2
:104CEA0024022502260227022A02B300B4006F001A
:104CFA0070009F01CB019F02A002F0F1F4F5F6F7D4
:104D0A000000000000000030313233929366010146
:104D1A0001010101010000000000000044226DDCD5
:104D2A0004BA044D0432054B056B05000102020268
:104D3A00020606060909090909090F0F0F0F0F0FC5
:104D4A0015151518191919191919191919192324C1
:064D5A0025252525252575
:00000001FF
